S01200006D6331206D61737465722E7372656365
S11300000C942A000C9447000C9447000C9447006D
S11300100C9447000C9447000C9447000C94470040
S11300200C9447000C9447000C9447000C94470030
S11300300C9447000C9447000C9447000C94470020
S11300400C9447000C9447000C9447000C94470010
S11300500C94470011241FBECFE5D8E0DEBFCDBF0E
S113006010E0A0E6B0E0E4E6F5E002C005900D92F1
S1130070AA37B107D9F720E0AAE7B0E001C01D9282
S1130080AC37B207E1F70E9412020C94B0020C9450
S113009000004423B9F1413009F06BC0813089F08C
S11300A028F08230C9F0833011F108952AB381E039
S11300B090E002C0880F991F6A95E2F7822B8ABBF1
S11300C0089527B381E090E002C0880F991F6A95D4
S11300D0E2F7822B87BB089524B381E090E002C04D
S11300E0880F991F6A95E2F7822B84BB089521B388
S11300F081E090E002C0880F991F6A95E2F7822B95
S113010081BB0895813091F028F08230D9F083309A
S113011029F108952AB381E090E002C0880F991F65
S11301206A95E2F7809582238ABB089527B381E01C
S113013090E002C0880F991F6A95E2F780958223A8
S113014087BB089524B381E090E002C0880F991F13
S11301506A95E2F78095822384BB089521B381E0F8
S113016090E002C0880F991F6A95E2F78095822378
S113017081BB08954423B9F1413009F06BC081304B
S113018089F028F08230C9F0833011F108952BB33F
S113019081E090E002C0880F991F6A95E2F7822BF4
S11301A08BBB089528B381E090E002C0880F991FAB
S11301B06A95E2F7822B88BB089525B381E090E02D
S11301C002C0880F991F6A95E2F7822B85BB0895B8
S11301D022B381E090E002C0880F991F6A95E2F78C
S11301E0822B82BB0895813091F028F08230D9F0BF
S11301F0833029F108952BB381E090E002C0880F89
S1130200991F6A95E2F7809582238BBB089528B3E2
S113021081E090E002C0880F991F6A95E2F780950B
S1130220822388BB089525B381E090E002C0880F43
S1130230991F6A95E2F78095822385BB089522B3BE
S113024081E090E002C0880F991F6A95E2F78095DB
S1130250822382BB0895CF93C82F40E061E081E000
S11302600E94BA0040E062E081E00E94BA0040E0EF
S113027063E081E00E94BA008BB39C2F907F8F7063
S1130280892B8BBB41E063E081E00E94BA008FE9D7
S11302909FE00197F1F700C0000040E063E081E0D7
S11302A00E94BA0020E1C29FC00111249BB39F7039
S11302B0892B8BBB41E063E081E00E94BA008FE9A7
S11302C09FE00197F1F700C0000040E063E081E0A7
S11302D00E94BA008FE19EE40197F1F700C000008C
S11302E0CF91089541E061E081E00E94490041E03E
S11302F062E081E00E94490041E063E081E00E9405
S1130300490041E064E080E00E94490041E065E08A
S113031080E00E94490041E066E080E00E944900DC
S113032041E067E080E00E9449002FEF81EE94E015
S1130330215080409040E1F700C0000083E30E9418
S11303402B0182E30E942B0188E20E942B018CE0A6
S11303500E942B0181E00E942B0186E00E942B0168
S113036082E00E942B010895CF93C82F41E061E001
S113037081E00E94BA0040E062E081E00E94BA009D
S113038040E063E081E00E94BA008BB39C2F907F31
S11303908F70892B8BBB41E063E081E00E94BA003F
S11303A08FE99FE00197F1F700C0000040E063E0AF
S11303B081E00E94BA0020E1C29FC00111249BB3D6
S11303C09F70892B8BBB41E063E081E00E94BA00FF
S11303D08FE99FE00197F1F700C0000040E063E07F
S11303E081E00E94BA008FE19EE40197F1F700C01A
S11303F00000CF9108950F931F93CF938C01C0E019
S113040003C00E94B401CF5FF801EC0FF11D80819D
S11304108111F7CFCF911F910F91089581E00E9430
S11304202B0108950E9465020E9472010E94280215
S11304300E9441022FEF83ED90E3215080409040D1
S1130440E1F700C000000E947A020E945102FBCF33
S113045041E064E081E00E94490041E065E081E020
S11304600E94490040E066E081E00E94490041E0CA
S113047067E081E00E94490083E590E09EB98DB970
S1130480089540E064E081E00E94BA00089590E09D
S113049090BB8FB98EB19FB187FFFCCF8FB190B362
S11304A00895809160000E94470280937A00823010
S11304B011F410927A002FEF83ED90E321508040E5
S11304C09040E1F700C00000089581B3826081BBD1
S11304D081B38E7F81BB8AB188608AB98AB1806119
S11304E08AB986E880BD87E689B908955F9BFECF07
S11304F08CB108950E94760280937B00882321F0BA
S11305000E94B40110927B0080917B00811127C06E
S11305102FEF83ED90E3215080409040E1F700C03D
S1130520000081E690E00E94FB012FEF8FE493EC42
S1130530215080409040E1F700C000000E940E026C
S11305408EE690E00E94FB012FEF8FE493EC2150A4
S113055080409040E1F700C000000E940E02089520
S1070560F894FFCF39
S1130564012055415254204953204F4E200020531A
S10D05745441525420535049200012
S9030000FC
